{
  "contractName": "BlockchainClass",
  "abi": [
    {
      "constant": true,
      "inputs": [],
      "name": "total",
      "outputs": [
        {
          "name": "",
          "type": "uint256"
        }
      ],
      "payable": false,
      "stateMutability": "view",
      "type": "function"
    },
    {
      "constant": false,
      "inputs": [
        {
          "name": "_value",
          "type": "uint256"
        }
      ],
      "name": "setStudents",
      "outputs": [],
      "payable": false,
      "stateMutability": "nonpayable",
      "type": "function"
    },
    {
      "constant": true,
      "inputs": [],
      "name": "getStudents",
      "outputs": [
        {
          "name": "",
          "type": "uint256"
        }
      ],
      "payable": false,
      "stateMutability": "view",
      "type": "function"
    },
    {
      "constant": false,
      "inputs": [],
      "name": "readData",
      "outputs": [
        {
          "name": "",
          "type": "uint256"
        }
      ],
      "payable": false,
      "stateMutability": "nonpayable",
      "type": "function"
    }
  ],
  "bytecode": "0x6080604052600a600055600560015534801561001a57600080fd5b506101908061002a6000396000f300608060405260043610610062576000357c0100000000000000000000000000000000000000000000000000000000900463ffffffff1680632ddbd13a14610067578063b253b58114610092578063bef55ef3146100bf578063f1d064b3146100ea575b600080fd5b34801561007357600080fd5b5061007c610115565b6040518082815260200191505060405180910390f35b34801561009e57600080fd5b506100bd60048036038101908080359060200190929190505050610123565b005b3480156100cb57600080fd5b506100d461012d565b6040518082815260200191505060405180910390f35b3480156100f657600080fd5b506100ff610141565b6040518082815260200191505060405180910390f35b600060015460005401905090565b8060008190555050565b60008061013861014a565b90508091505090565b60008054905090565b6000600160008082825401925050819055506000549050905600a165627a7a723058208a9b0969cf03b72247808ec3d6ddfdab1bfccd0bab29fb0d72c49edadff872ed0029",
  "source": "pragma solidity ^0.4.23;\ncontract Class {\n    uint private students = 10;\n    uint private teachers = 5;\n    function setTeachers(uint _value) private { teachers = _value; }\n    function getTeachers() private  view returns(uint) { return teachers; }\n    function setStudents(uint _value) public { students = _value; }\n    function getStudents() public view returns(uint) { return students; }\n    function total() external view returns (uint) { return students + teachers; }\n    function increaseStudent() internal returns (uint) { \n    \tstudents += 1;\n    \treturn students; \n    }\n}\n\ncontract EnglishClass {\n    function readData() public returns(uint) {\n        Class class = new Class();\n        // uint teachers = class.getTeachers(); // error: member `getTeachers` is not visible - private\n        //local = class.total(); // error: member `total` is not visible - internal\n        class.setStudents(3);\n        uint students = class.getStudents();\n        return students;\n    }\n}\n\ncontract BlockchainClass is Class {\n    function readData() public returns(uint){\n        uint total = increaseStudent(); // access to internal member (from derived to parent contract)\n        return total;\n    }\n}",
  "sourcePath": "/home/zgang/work/intro-blockchain-development/examples/class-5/contracts/Visibility.sol",
  "compiler": {
    "name": "solc",
    "version": "0.4.24+commit.e67f0147.Emscripten.clang"
  },
  "schemaVersion": "2.0.1",
  "updatedAt": "2019-02-18T17:07:54.817Z"
}