{
  "contractName": "DataTypes",
  "abi": [
    {
      "constant": true,
      "inputs": [],
      "name": "numPayments",
      "outputs": [
        {
          "name": "",
          "type": "uint256"
        }
      ],
      "payable": false,
      "stateMutability": "view",
      "type": "function"
    },
    {
      "constant": true,
      "inputs": [
        {
          "name": "",
          "type": "uint256"
        }
      ],
      "name": "studentAccs",
      "outputs": [
        {
          "name": "",
          "type": "address"
        }
      ],
      "payable": false,
      "stateMutability": "view",
      "type": "function"
    },
    {
      "constant": true,
      "inputs": [],
      "name": "getString",
      "outputs": [
        {
          "name": "",
          "type": "string"
        }
      ],
      "payable": false,
      "stateMutability": "view",
      "type": "function"
    },
    {
      "constant": false,
      "inputs": [
        {
          "name": "_value",
          "type": "string"
        }
      ],
      "name": "setString",
      "outputs": [],
      "payable": false,
      "stateMutability": "nonpayable",
      "type": "function"
    },
    {
      "constant": true,
      "inputs": [],
      "name": "getUint",
      "outputs": [
        {
          "name": "",
          "type": "uint256"
        }
      ],
      "payable": false,
      "stateMutability": "view",
      "type": "function"
    },
    {
      "constant": false,
      "inputs": [
        {
          "name": "_value",
          "type": "uint256"
        }
      ],
      "name": "setUint",
      "outputs": [],
      "payable": false,
      "stateMutability": "nonpayable",
      "type": "function"
    },
    {
      "constant": false,
      "inputs": [
        {
          "name": "_value",
          "type": "uint256"
        }
      ],
      "name": "pushArray",
      "outputs": [],
      "payable": false,
      "stateMutability": "nonpayable",
      "type": "function"
    },
    {
      "constant": true,
      "inputs": [],
      "name": "getArray",
      "outputs": [
        {
          "name": "",
          "type": "uint256[]"
        }
      ],
      "payable": false,
      "stateMutability": "view",
      "type": "function"
    },
    {
      "constant": false,
      "inputs": [
        {
          "name": "_address",
          "type": "address"
        },
        {
          "name": "_age",
          "type": "uint256"
        },
        {
          "name": "_fName",
          "type": "string"
        },
        {
          "name": "_lName",
          "type": "string"
        }
      ],
      "name": "setStudent",
      "outputs": [
        {
          "name": "",
          "type": "uint256"
        },
        {
          "name": "",
          "type": "string"
        },
        {
          "name": "",
          "type": "string"
        }
      ],
      "payable": false,
      "stateMutability": "nonpayable",
      "type": "function"
    },
    {
      "constant": true,
      "inputs": [],
      "name": "getStudents",
      "outputs": [
        {
          "name": "",
          "type": "address[]"
        }
      ],
      "payable": false,
      "stateMutability": "view",
      "type": "function"
    },
    {
      "constant": true,
      "inputs": [
        {
          "name": "_address",
          "type": "address"
        }
      ],
      "name": "getStudent",
      "outputs": [
        {
          "name": "",
          "type": "uint256"
        },
        {
          "name": "",
          "type": "string"
        },
        {
          "name": "",
          "type": "string"
        }
      ],
      "payable": false,
      "stateMutability": "view",
      "type": "function"
    },
    {
      "constant": true,
      "inputs": [],
      "name": "countStudents",
      "outputs": [
        {
          "name": "",
          "type": "uint256"
        }
      ],
      "payable": false,
      "stateMutability": "view",
      "type": "function"
    },
    {
      "constant": false,
      "inputs": [
        {
          "name": "_value",
          "type": "uint256"
        }
      ],
      "name": "setChoice",
      "outputs": [],
      "payable": false,
      "stateMutability": "nonpayable",
      "type": "function"
    },
    {
      "constant": true,
      "inputs": [],
      "name": "getChoice",
      "outputs": [
        {
          "name": "",
          "type": "uint256"
        }
      ],
      "payable": false,
      "stateMutability": "view",
      "type": "function"
    },
    {
      "constant": true,
      "inputs": [],
      "name": "getDefaultChoice",
      "outputs": [
        {
          "name": "",
          "type": "uint256"
        }
      ],
      "payable": false,
      "stateMutability": "pure",
      "type": "function"
    }
  ],
  "bytecode": "0x6080604052600080556040805190810160405280601781526020017f54686973206973206f726967696e616c20737472696e670000000000000000008152506001908051906020019061005392919061006b565b50600160025534801561006557600080fd5b50610110565b828054600181600116156101000203166002900490600052602060002090601f016020900481019282601f106100ac57805160ff19168380011785556100da565b828001600101855582156100da579182015b828111156100d95782518255916020019190600101906100be565b5b5090506100e791906100eb565b5090565b61010d91905b808211156101095760008160009055506001016100f1565b5090565b90565b61106080620001206000396000f3006080604052600436106100da576000357c0100000000000000000000000000000000000000000000000000000000900463ffffffff1680620267a4146100df57806316cdf8251461010a5780632279fa4c146101375780632a6e00ef14610162578063477f5a69146103275780634ef65c3b146103525780635616bb561461037f57806367cb61b6146103ac5780636b7b44d7146103d75780637209cfd3146105065780637fcaf66614610573578063843f7258146105dc57806389ea642f14610607578063d504ea1d14610697578063f1d064b314610703575b600080fd5b3480156100eb57600080fd5b506100f461076f565b6040518082815260200191505060405180910390f35b34801561011657600080fd5b5061013560048036038101908080359060200190929190505050610779565b005b34801561014357600080fd5b5061014c6107a8565b6040518082815260200191505060405180910390f35b34801561016e57600080fd5b50610239600480360381019080803573ffffffffffffffffffffffffffffffffffffffff16906020019092919080359060200190929190803590602001908201803590602001908080601f0160208091040260200160405190810160405280939291908181526020018383808284378201915050505050509192919290803590602001908201803590602001908080601f01602080910402602001604051908101604052809392919081815260200183838082843782019150505050505091929192905050506107ae565b604051808481526020018060200180602001838103835285818151815260200191508051906020019080838360005b83811015610283578082015181840152602081019050610268565b50505050905090810190601f1680156102b05780820380516001836020036101000a031916815260200191505b50838103825284818151815260200191508051906020019080838360005b838110156102e95780820151818401526020810190506102ce565b50505050905090810190601f1680156103165780820380516001836020036101000a031916815260200191505b509550505050505060405180910390f35b34801561033357600080fd5b5061033c610b20565b6040518082815260200191505060405180910390f35b34801561035e57600080fd5b5061037d60048036038101908080359060200190929190505050610b2d565b005b34801561038b57600080fd5b506103aa60048036038101908080359060200190929190505050610b37565b005b3480156103b857600080fd5b506103c1610b68565b6040518082815260200191505060405180910390f35b3480156103e357600080fd5b50610418600480360381019080803573ffffffffffffffffffffffffffffffffffffffff169060200190929190505050610b8a565b604051808481526020018060200180602001838103835285818151815260200191508051906020019080838360005b83811015610462578082015181840152602081019050610447565b50505050905090810190601f16801561048f5780820380516001836020036101000a031916815260200191505b50838103825284818151815260200191508051906020019080838360005b838110156104c85780820151818401526020810190506104ad565b50505050905090810190601f1680156104f55780820380516001836020036101000a031916815260200191505b509550505050505060405180910390f35b34801561051257600080fd5b5061053160048036038101908080359060200190929190505050610d9b565b604051808273ffffffffffffffffffffffffffffffffffffffff1673ffffffffffffffffffffffffffffffffffffffff16815260200191505060405180910390f35b34801561057f57600080fd5b506105da600480360381019080803590602001908201803590602001908080601f0160208091040260200160405190810160405280939291908181526020018383808284378201915050505050509192919290505050610dd9565b005b3480156105e857600080fd5b506105f1610df3565b6040518082815260200191505060405180910390f35b34801561061357600080fd5b5061061c610e07565b6040518080602001828103825283818151815260200191508051906020019080838360005b8381101561065c578082015181840152602081019050610641565b50505050905090810190601f1680156106895780820380516001836020036101000a031916815260200191505b509250505060405180910390f35b3480156106a357600080fd5b506106ac610ea9565b6040518080602001828103825283818151815260200191508051906020019060200280838360005b838110156106ef5780820151818401526020810190506106d4565b505050509050019250505060405180910390f35b34801561070f57600080fd5b50610718610f01565b6040518080602001828103825283818151815260200191508051906020019060200280838360005b8381101561075b578082015181840152602081019050610740565b505050509050019250505060405180910390f35b6000600254905090565b600381908060018154018082558091505090600182039060005260206000200160009091929091909150555050565b60005481565b600060608085600460008973ffffffffffffffffffffffffffffffffffffffff1673ffffffffffffffffffffffffffffffffffffffff1681526020019081526020016000206000018190555084600460008973ffffffffffffffffffffffffffffffffffffffff1673ffffffffffffffffffffffffffffffffffffffff1681526020019081526020016000206001019080519060200190610850929190610f8f565b5083600460008973ffffffffffffffffffffffffffffffffffffffff1673ffffffffffffffffffffffffffffffffffffffff16815260200190815260200160002060020190805190602001906108a7929190610f8f565b50600160058890806001815401808255809150509060018203906000526020600020016000909192909190916101000a81548173ffffffffffffffffffffffffffffffffffffffff021916908373ffffffffffffffffffffffffffffffffffffffff1602179055505050600460008873ffffffffffffffffffffffffffffffffffffffff1673ffffffffffffffffffffffffffffffffffffffff16815260200190815260200160002060000154600460008973ffffffffffffffffffffffffffffffffffffffff1673ffffffffffffffffffffffffffffffffffffffff168152602001908152602001600020600101600460008a73ffffffffffffffffffffffffffffffffffffffff1673ffffffffffffffffffffffffffffffffffffffff168152602001908152602001600020600201818054600181600116156101000203166002900480601f016020809104026020016040519081016040528092919081815260200182805460018160011615610100020316600290048015610a6d5780601f10610a4257610100808354040283529160200191610a6d565b820191906000526020600020905b815481529060010190602001808311610a5057829003601f168201915b50505050509150808054600181600116156101000203166002900480601f016020809104026020016040519081016040528092919081815260200182805460018160011615610100020316600290048015610b095780601f10610ade57610100808354040283529160200191610b09565b820191906000526020600020905b815481529060010190602001808311610aec57829003601f168201915b505050505090509250925092509450945094915050565b6000600580549050905090565b8060028190555050565b806003811115610b4357fe5b600660006101000a81548160ff02191690836003811115610b6057fe5b021790555050565b6000600660009054906101000a900460ff166003811115610b8557fe5b905090565b6000606080600460008573ffffffffffffffffffffffffffffffffffffffff1673ffffffffffffffffffffffffffffffffffffffff16815260200190815260200160002060000154600460008673ffffffffffffffffffffffffffffffffffffffff1673ffffffffffffffffffffffffffffffffffffffff168152602001908152602001600020600101600460008773ffffffffffffffffffffffffffffffffffffffff1673ffffffffffffffffffffffffffffffffffffffff168152602001908152602001600020600201818054600181600116156101000203166002900480601f016020809104026020016040519081016040528092919081815260200182805460018160011615610100020316600290048015610ceb5780601f10610cc057610100808354040283529160200191610ceb565b820191906000526020600020905b815481529060010190602001808311610cce57829003601f168201915b50505050509150808054600181600116156101000203166002900480601f016020809104026020016040519081016040528092919081815260200182805460018160011615610100020316600290048015610d875780601f10610d5c57610100808354040283529160200191610d87565b820191906000526020600020905b815481529060010190602001808311610d6a57829003601f168201915b505050505090509250925092509193909250565b600581815481101515610daa57fe5b906000526020600020016000915054906101000a900473ffffffffffffffffffffffffffffffffffffffff1681565b8060019080519060200190610def929190610f8f565b5050565b600060026003811115610e0257fe5b905090565b606060018054600181600116156101000203166002900480601f016020809104026020016040519081016040528092919081815260200182805460018160011615610100020316600290048015610e9f5780601f10610e7457610100808354040283529160200191610e9f565b820191906000526020600020905b815481529060010190602001808311610e8257829003601f168201915b5050505050905090565b60606003805480602002602001604051908101604052809291908181526020018280548015610ef757602002820191906000526020600020905b815481526020019060010190808311610ee3575b5050505050905090565b60606005805480602002602001604051908101604052809291908181526020018280548015610f8557602002820191906000526020600020905b8160009054906101000a900473ffffffffffffffffffffffffffffffffffffffff1673ffffffffffffffffffffffffffffffffffffffff1681526020019060010190808311610f3b575b5050505050905090565b828054600181600116156101000203166002900490600052602060002090601f016020900481019282601f10610fd057805160ff1916838001178555610ffe565b82800160010185558215610ffe579182015b82811115610ffd578251825591602001919060010190610fe2565b5b50905061100b919061100f565b5090565b61103191905b8082111561102d576000816000905550600101611015565b5090565b905600a165627a7a723058200bb3bc473fec6b0acbf6c06b6d551fee0e7e3f0d62ae6f10b280e8e020f7b2fb0029",
  "source": "pragma solidity ^0.4.23;\n\ncontract DataTypes {\n\tuint256 public numPayments = 0;\n\n\t/* String use example */\n    string stringTest = \"This is original string\";\n\n    function getString() public view returns(string){\n        return stringTest;\n    }\n\n    function setString(string _value) public {\n        stringTest =  _value;\n    }\n\n    /* Uint use example */\n    uint256 uintTest = 1;\n\n    function getUint() public view returns(uint256){\n        return uintTest;\n    }\n\n    function setUint(uint256 _value) public{\n        uintTest =  _value;\n    }\n\n    /* Array use example */ \n    uint256[] arrayTest;\n\n\n    function pushArray(uint256 _value) public{\n        arrayTest.push(_value);\n    }\n\n    function getArray() public view returns(uint256[]){\n        return arrayTest;\n    }\n\n\n    /* Mapping and struct use example*/\n    struct Student {\n        uint age;\n        string fName;\n        string lName;\n    }\n    mapping(address => Student) students;\n    address[] public studentAccs;\n\n    function setStudent(address _address, uint256 _age, string _fName, string _lName) public returns(uint, string, string){\n        students[_address].age = _age;\n        students[_address].fName = _fName;\n        students[_address].lName = _lName;\n        studentAccs.push(_address) - 1;\n        return (students[_address].age, students[_address].fName, students[_address].lName);\n    }\n\n    function getStudents() view public returns(address[]) {\n        return studentAccs;\n    }\n    \n    function getStudent(address _address) view public returns (uint, string, string) {\n        return (students[_address].age, students[_address].fName, students[_address].lName);\n    }\n    \n    function countStudents() view public returns (uint) {\n        return studentAccs.length;\n    }\n\n    /* Enum example */\n    enum ActionChoices { GoLeft, GoRight, GoStraight, SitStill }\n    ActionChoices choice;\n    ActionChoices constant defaultChoice = ActionChoices.GoStraight;\n\n    function setChoice(uint _value) public {\n        choice = ActionChoices(_value);\n    }\n\n    function getChoice() public view returns (uint) {\n        return uint(choice);\n    }\n\n    function getDefaultChoice() public pure returns (uint) {\n        return uint(defaultChoice);\n    }\n}",
  "sourcePath": "/home/zgang/work/intro-blockchain-development/examples/class-5/contracts/DataTypes.sol",
  "compiler": {
    "name": "solc",
    "version": "0.4.24+commit.e67f0147.Emscripten.clang"
  },
  "schemaVersion": "2.0.1",
  "updatedAt": "2019-02-18T17:07:54.815Z"
}