{
  "contractName": "EnglishClass",
  "abi": [
    {
      "constant": false,
      "inputs": [],
      "name": "readData",
      "outputs": [
        {
          "name": "",
          "type": "uint256"
        }
      ],
      "payable": false,
      "stateMutability": "nonpayable",
      "type": "function"
    }
  ],
  "bytecode": "0x608060405234801561001057600080fd5b50610353806100206000396000f300608060405260043610610041576000357c0100000000000000000000000000000000000000000000000000000000900463ffffffff168063bef55ef314610046575b600080fd5b34801561005257600080fd5b5061005b610071565b6040518082815260200191505060405180910390f35b600080600061007e6101ce565b604051809103906000f08015801561009a573d6000803e3d6000fd5b5091508173ffffffffffffffffffffffffffffffffffffffff1663b253b58160036040518263ffffffff167c010000000000000000000000000000000000000000000000000000000002815260040180828152602001915050600060405180830381600087803b15801561010d57600080fd5b505af1158015610121573d6000803e3d6000fd5b505050508173ffffffffffffffffffffffffffffffffffffffff1663f1d064b36040518163ffffffff167c0100000000000000000000000000000000000000000000000000000000028152600401602060405180830381600087803b15801561018957600080fd5b505af115801561019d573d6000803e3d6000fd5b505050506040513d60208110156101b357600080fd5b81019080805190602001909291905050509050809250505090565b604051610149806101df8339019056006080604052600a600055600560015534801561001a57600080fd5b5061011f8061002a6000396000f3006080604052600436106053576000357c0100000000000000000000000000000000000000000000000000000000900463ffffffff1680632ddbd13a146058578063b253b581146080578063f1d064b31460aa575b600080fd5b348015606357600080fd5b50606a60d2565b6040518082815260200191505060405180910390f35b348015608b57600080fd5b5060a86004803603810190808035906020019092919050505060e0565b005b34801560b557600080fd5b5060bc60ea565b6040518082815260200191505060405180910390f35b600060015460005401905090565b8060008190555050565b600080549050905600a165627a7a72305820c14945167e7ed0c20e50ff69fb3d2af9198cff702fe0c3d49a23930ce253e1030029a165627a7a723058205a692b3665c633c357a0e0768d28002455f83b55125fffa6a44c8ef4bb01db140029",
  "source": "pragma solidity ^0.4.23;\ncontract Class {\n    uint private students = 10;\n    uint private teachers = 5;\n    function setTeachers(uint _value) private { teachers = _value; }\n    function getTeachers() private  view returns(uint) { return teachers; }\n    function setStudents(uint _value) public { students = _value; }\n    function getStudents() public view returns(uint) { return students; }\n    function total() external view returns (uint) { return students + teachers; }\n    function increaseStudent() internal returns (uint) { \n    \tstudents += 1;\n    \treturn students; \n    }\n}\n\ncontract EnglishClass {\n    function readData() public returns(uint) {\n        Class class = new Class();\n        // uint teachers = class.getTeachers(); // error: member `getTeachers` is not visible - private\n        //local = class.total(); // error: member `total` is not visible - internal\n        class.setStudents(3);\n        uint students = class.getStudents();\n        return students;\n    }\n}\n\ncontract BlockchainClass is Class {\n    function readData() public returns(uint){\n        uint total = increaseStudent(); // access to internal member (from derived to parent contract)\n        return total;\n    }\n}",
  "sourcePath": "/home/zgang/work/intro-blockchain-development/examples/class-5/contracts/Visibility.sol",
  "compiler": {
    "name": "solc",
    "version": "0.4.24+commit.e67f0147.Emscripten.clang"
  },
  "schemaVersion": "2.0.1",
  "updatedAt": "2019-02-18T17:07:54.818Z"
}